:400000000080002011000000ED050000ED05000080B500AF024A034B1B68136000F0F0FABC760040FA46004010B5054C237833B9044B13B10448AFF300800123237010BD49
:400040005081FF1F00000000A0130000084B10B51BB108490848AFF300800848036803B910BD074B002BFBD0BDE81040184700BF000000005481FF1FA0130000C880FF1F8C
:400080000000000090B583B000AF0023FB803C4B00221A7062B641F6FF7341F6FF720121042000F059FC03461A46364B1A7000F0F1FF03461A46344B1A70334B18780223DB
:4000C000FE22042101F014F82F4B1B782F4A91B22F4A92B2184601F04BF82A4B1A782A4B1B781946104600F067FF01F0B1F8254B1B780121184600F07BFE00F0D7FB00F054
:400100003DFE00F0EBFB4FF47A7001F06BF81C4B1B78DBB2012BFAD1194B00221A7000F0E3FB0023FB8013E0FC88FB88C3F101039BB2184600F0DEFB0346184600F0F6FB85
:4001400003461AB2134B23F81420FB880133FB80FB88012BE8D90F4B1B680F4A13600E4BB3F90030BB800C4BB3F90230BB80054B1B780121184600F03BFE00F0AFFBC6E7BF
:400180008981FF1F8A81FF1F8881FF1F8C81FF1F6C81FF1F7481FF1F7081FF1F80B582B000AF786039603A680021786801F0EFF800BF0837BD4680BD80B584B000AFF860BF
:4001C000B9607A607A68B968F86801F0D5F800BF1037BD4680BD00BF80B483B000AF0346FB71FEE780B487B000AF7860396000233B6100237B6127E07B699B007A6813442E
:400200001B68BB60BB68FB73BB6823F0FF03BB6014E03B695B003A6813441B781A46BB68134419463B695B003A6813445B780B703B6901333B61FB7B013BFB73FB7B002B09
:40024000E7D17B6901337B617B691C2BD4D900BF1C37BD4680BC704780B582B000AF434B1B78BB70424B0E221A80424B18221A70414B02221A704FF0402308221A703F4BCE
:40028000F3221A70394B03221A703D4B84221A703C4B05221A703C4B7B6006E04FF4F07001F02EF87B68013B7B607B68002B06D0344B1B78DBB203F02003002BEED02B4A89
:4002C000BB781370314B03221A70314B314A1278D2B21A70304B08221A80304B41F251221A800023FB7019237B6014E0FB785B00DAB22B4B1B78DBB203F00103DBB2134331
:40030000DBB203F00303FB704FF4F07000F0F8FF7B68013B7B607B68002B02D0FB78032BE4D17B68002B02D10320FFF755FF1D4B4FF480721A801B4B07221A701A4B0022ED
:400340001A701A4B48221A70164B00221A70184B02221A70174A174B1B78DBB243F00103DBB2137000BF0837BD4680BD984600408040004082400040004300400A430040E4
:400380000943004008430040A086010000420040A14600400801004922420040204200402542004004400040064000400840004001400040A243004080B582B000AF214B5D
:4003C0001B78FB71204B1B78BB71204B1B787B711F4AFB7903F00703DBB213701D4AFB791B09DBB21370184ABB7943F00303DBB21370164A7B7943F00303DBB21370164B14
:4004000002221A70154B40221A70154B80221A70144B60221A70144B20221A70134B20221A700A2000F000FF084A7B791370064ABB7913700E4B44221A7000BF0837BD4643
:4004400080BD00BFCF010049F8460040F94600406E5800406F5800400D5100403D51004009590040285B00402B5B0040585B00407658004080B582B000AF72B6434A434B6C
:400480001B78DBB243F00403DBB213700023FB7113E0FA7913465B0013445B003C4A13443B603B681A683B689B889BB219461046FFF774FEFB790133FB71FB79072BE8D92F
:4004C00034494FF09040FFF78DFE04213248FFF765FE042231493248FFF76EFE042231493148FFF769FE314A304B1B78DBB243F00203DBB213702E4A2D4B1B78DBB243F064
:400500000203DBB213702B4A2A4B1B78DBB243F04003DBB21370284A274B1B78DBB243F01003DBB21370082224492548FFF744FE082224492448FFF73FFE08222349244848
:40054000FFF73AFE082223492348FFF735FE234A224B1B78DBB243F00803DBB21370204B61221A70FFF778FE1D4B81221A701D4B01221A70FFF720FF0E220E491A48FFF759
:400580001BFE00BF0837BD4680BD00BFE8460040A41300007400004800760040400400480876004044040048107600400350014013500140A0430040C243004020040048E2
:4005C00002510040280400481251004030040048225100403804004832510040224300400048004004000840B043004080B500AF00F096FE03461B680C2B00D1FEE7FEE729
:4006000080B586B000AF224B7B61224B3B61204B7B6135E03B691B68FB603B695B68BB603B699B683B6000237B600CE0FB681A68BB681A60BB680433BB60FB680433FB60D6
:400640007B6804337B607A683B689A42EED13B69DB683B6000237B6008E0BB6800221A60BB680433BB607B6804337B607A683B689A42F2D13B6910333B617B69013B7B6131
:400680007B69002BC6D100F051FEFFF7FBFCFEE701000000FC13000080B582B000AF194B194A1A60194A194B1B6843F40073136000237B600FE07B68032B04D8144A7B689A
:4006C00052F8233000E0134B13497A6841F822307B6801337B607B682F2BECD90F4B1B78DAB20F4B1A700F4B0B4A1A60FFF7C2FE00F050FB0C4B00221A6000BF0837BD46F7
:4007000080BD00BF0CED00E00004FA0514ED00E000000000ED0500000080FF1FBC760040C480FF1F08ED00E0C080FF1F80B500AF41F6FF734FF480420121022000F096FA13
:4007400003461A460A4B1A7041F6FF7341F6FF720121042000F0BCFA03461A46054B1A70054800F0E7FA002000F0F6FA00BF80BD7C81FF1F7D81FF1F4D09000080B582B023
:4007800000AF414B1B78184600F078FB3F4B1B78184600F073FB3E4B1B78FF2B05D100F079FC03461A463A4B1A70394B1878384B1A780623042100F09BFC354B1B78354A08
:4007C00092B245F6A231184600F0D2FC2E4B1A782F4B1B781946104600F0EEFB2E4B1B78FF2B05D100F056FC03461A462A4B1A70294B1878284B1A780723042100F078FC33
:40080000254B1B78234A91B2244A92B2184600F0AFFC1E4B1A78204B1B781946104600F0CBFB194B1B780121184600F0E1FA174B1B780121184600F0DBFA00F069FD0346DB
:40084000FB71174A164B1B78DBB243F02003DBB21370FB79184600F05FFD124A114B1B78DBB243F00103DBB213700E4A0D4B1B78DBB243F00203DBB213700B4B01221A607C
:4008800000BF0837BD4680BD7C81FF1F7D81FF1FCC80FF1F8081FF1FCD80FF1F8C81FF1F946400407364004080E200E080B500AF084B1B68002B04D1FFF738FF054B0122B9
:4008C0001A6000F07BF8FFF759FF034B1B7800BF80BD00BF7881FF1F6264004080B500AF00F020F900BF80BD80B500AF00F02AF900BF80BD80B483B000AF0346FB80FB88DB
:40090000C3F10103074A32F913309AB2064B1B881BB29BB2D31A9BB21BB218460C37BD4680BC70478C81FF1F9881FF1F80B582B000AF0346FB80B7F90630184600F050F98F
:40094000034618460837BD4680BD00BF80B400AF00BFBD4680BC704790B585B002AF0446084611461A462346FB710346BB710B46BB8013467B80104B00221A700E4B187866
:40098000BA79F9790023019300230093002300F031FB094B1B787A88B988184600F0D0FA054B1B780221184600F098FA024B1B7818460C37BD4690BDCE80FF1F80B500AF9D
:4009C000064B1B78002B04D100F00AF8034B01221A7000F01BF800BF80BD00BF8481FF1F80B500AF074A074B1B78DBB243F00603DBB213700C2000F06BF8034B00221A80C9
:400A000000BF80BD095900409281FF1F80B582B000AF00F07DFC0346FB71254A244B1B78DBB243F00203DBB21370224A214B1B78DBB243F00203DBB213701F4B1B78BB7104
:400A4000BB7943F00203BB71BB7943F00103BB71194ABB791370194B18221A70184A184B1B78DBB243F04003DBB21370144A144B1B78DBB223F00303DBB21370114BC8224E
:400A80001A70114B02221A70104A104B1B78DBB243F00803DBB213700A2000F0C5FBFB79184600F039FC00BF0837BD4680BD00BFAB430040BB4300400B5900400E590040FA
:400AC0000D59004008590040164600402F5B004080B584B000AF0346FB71FB790A2B07D00C2B02D0082B06D008E0C223FB730BE08223FB7308E04223FB7305E0C223FB73BE
:400B0000002000F063FB00BF054AFB7B1370FB79184600F027F800BF1037BD4680BD00BF0A59004080B400AF054A054B1B78DBB243F00103DBB2137000BFBD4680BC704719
:400B40000859004080B400AF054A054B1B78DBB223F00103DBB2137000BFBD4680BC70470859004080B584B000AF0346FB71FB790A2B08D00C2B02D0082B08D00BE04FF425
:400B80008053FB600DE04FF48063FB6009E04FF48073FB6005E00023FB60002000F016FB00BF0C4B00221A80FB6842F2107202FB03F303F58063002B01DA03F2FF73DB1288
:400BC0001A46054B1A60054B00221A8000BF1037BD4680BD9081FF1F9481FF1F9881FF1F80B485B000AF0346FB801D4B1B881BB2002B09D01A4B1B881BB21A4613469B00FF
:400C000013445B00FB6002E0164B1B68FB60164B1B881BB2FA889BB2D31A9BB2FB80B7F9063042F2107202FB03F2B7F90630002B04DDFB68D90F0B445B1004E0FB68D90F7D
:400C40000B445B105B421A44FB6892FBF3F37B81B7F90A3018461437BD4680BC704700BF9081FF1F9481FF1F9281FF1F90B585B002AF0446084611461A462346FB7103467A
:400C8000BB710B46BB8013467B80104B02221A700E4B1878BA79F9790023019300230093022300F0A7F9094B1B787A88B988184600F046F9054B1B780221184600F00EF95D
:400CC000024B1B7818460C37BD4690BDCF80FF1F90B585B002AF0446084611461A462346FB710346BB710B46BB8013467B80104B01221A700E4B1878BA79F97900230193C5
:400D000000230093012300F075F9094B1B787A88B988184600F014F9054B1B780221184600F0DCF8024B1B7818460C37BD4690BDD080FF1F80B485B000AF7860054B1B68CC
:400D4000FB60FB6840337A681A6000BF1437BD4680BC704708ED00E080B483B000AF0346FB71054AFB795B01DBB2137000BF0C37BD4680BC704700BF00E400E080B400AFB9
:400D8000034B01221A6000BFBD4680BC704700BF80E100E080B483B000AF134B7F221A70124B80221A707F23FB710CE0FB79DB0003F1804303F5F043FA79013AD2B21A7084
:400DC000FB79013BFB71FB79002BEFD1FB79DB0003F1804303F5F04300221A7000BF0C37BD4680BC704700BFD580FF1FD480FF1F80B485B000AF03460A46FB711346BB715D
:400E00000123FB60FB79172B2FD8BB79002B0ED0FB791A01184B1344FA791101164A0A441278D2B242F02002D2B21A700DE0FB791A01114B1344FA7911010F4A0A44127868
:400E4000D2B222F02002D2B21A70FB791A010A4B1344FA791101084A0A441278D2B242F00102D2B21A700023FB60FB6818461437BD4680BC704700BF1070004080B485B093
:400E800000AF0346FB710123FB60FB79172B1DD8FB791A01104B1344FA7911010E4A0A441279D2B242F00402D2B21A71FB791A01094B1344FA791101074A0A441278D2B276
:400EC00042F00102D2B21A700023FB60FB6818461437BD4680BC70471070004080B485B000AF03460A46FB711346BB710123FB60FB79172B1BD8FB791A01104B13441B78D1
:400F0000DBB223F00E03FB72FB791A010B4B1344BA795200D2B252B202F00E0251B297F90B200A4352B2D2B21A700023FB60FB6818461437BD4680BC704700BF107000402C
:400F400080B485B000AF0346FB710B46BB8013467B800123FB60BB8841F6FF72934202D14FF40053BB807B8841F6FF72934202D14FF400537B80FB79172B17D8FB79DB0009
:400F800003F1804303F5EC430433BB60BB68BA881A80FB79DB0003F1804303F5EC430633BB60BB687A881A800023FB60FB6818461437BD4680BC704780B485B000AF0346E1
:400FC0000A46FB711346BB710123FB60FB79172B07D8FB791A01064B1344BA795A720023FB60FB6818461437BD4680BC704700BF1070004090B484B000AF04460846114651
:401000001A462346FB710346BB710B467B7113463B710123FB60FB79172B34D8FB79DB0003F1804303F5EC43BA7902F07F02D1B27A79D201D2B20A43D2B21A70FB79DB0039
:4010400003F1804303F5EC433A7E1201D1B23A7902F00F02D2B20A43D2B25A70FB79DB0003F1804303F5EC433A7F02F00F02D2B29A70FB79DB0003F1804303F5EC430022A9
:40108000DA700023FB60FB6818461037BD4690BC704700BF80B582B000AFFF23FB7100F037F90346BB71104B1B78182B12D90F4B1B78FB710C4B1B78013BDAB20A4B1A705C
:4010C000FB79DB0003F1804303F5F0431B78DAB2064B1A70BB79184600F01EF9FB7918460837BD4680BD00BFD480FF1FD580FF1F90B484B000AF0446084611461A46234658
:40110000FB710346BB800B46BB711346FB700123FB6097F90730002B23DBBB8823F47F6323F00F039BB2002B1BD1FB79DB0003F1804303F5F043BB60BB68BA881A80FB798B
:40114000DB0003F1804303F5F043BA799A70FB79DB0003F1804303F5F043FA78DA700023FB60FB6818461037BD4690BC704700BF80B485B000AF0346FB710B46BB8013468B
:401180007B800123FB6097F90730002B17DBFB79DB0003F1804303F5F0430433BB60BB68BA881A80FB79DB0003F1804303F5F0430633BB60BB687A881A800023FB60FB682A
:4011C00018461437BD4680BC704700BF80B483B000AF0346FB7101BE00BF0C37BD4680BC704700BF80B582B000AF786008E00C4B1B68184600F084F87B68A3F500437B603D
:401200007B68B3F5004FF2D8064B1B687A6802FB03F3184600F074F800BF0837BD4680BDE880FF1FE080FF1F80B582B000AF0346FB80FB88054A127802FB03F3184600F0EE
:401240005FF800BF0837BD4680BD00BFE480FF1F80B500AF00F048F8044800F015F8072000F024F800F034F800BF80BD7112000080B400AF034B01221A7000BFBD4680BC91
:40128000704700BF8981FF1F80B485B000AF7860054B1B68FB60FB6844337A681A6000BF1437BD4680BC704708ED00E080B483B000AF0346FB71054AFB795B01DBB213706D
:4012C00000BF0C37BD4680BC704700BF01E400E080B400AF034B02221A6000BFBD4680BC704700BF00E100E080B400AF034B02221A6000BFBD4680BC704700BF80E100E0EA
:401300000230800803D000BF01380046FCD17047EFF3108072B6704780F31088704700BF014B1868704700BF4C81FF1F0E4B70B51E460E4C0025E41AA410A54204D056F843
:40134000253098470135F8E700F046F8084B094C1E46E41AA4100025A54204D056F8253098470135F8E770BDE4130000E4130000E4130000EC13000010B5431E0A44914269
:4013800004D011F8014B03F8014FF8E710BD03460244934202D003F8011BFAE77047000000000000405100403000C05100401000F05100401000000001400010001401408F
:4013C000000800400140000A004C0140000200500140200043000000F8B500BFF8BC08BC9E4670474D00000099060000F8B500BFF8BC08BC9E4670472900000010140000A0
:40140000C880FF1F88000000500000000000000000000000FFFFFFFFFF000000807F00000700000000366E01C05D0000180000000000E02E00000000000000000000000085
:401440000000000000000000000000000000000000000000D41300000000000000000000000000000000000000000000000000000000000000000000000000000000000085
:401480000000000000000000000000000000000000000000EC80FF1F00000000000000000000000000000000000000000000000000000000000000000000000000000000A2
:4014C00000000000000000000000000000000000000000000000000000000000000000000000000000000000000000000000000000000000000000000000000000000000EC
:4015000000000000000000000000000000000000000000000000000000000000000000000000000000000000000000000000000000000000000000000000000000000000AB
:40154000000000000000000000000000000000000000000000000000000000000000000000000000000000000000000000000000000000000000000000000000000000006B
:40158000000000000000000000000000000000000000000000000000000000000000000000000000000000000000000000000000000000000000000000000000000000002B
:020000040003F7
:0200000480007A
:4000000003520040015B004001640040090001402501014021020140330301401F040140400501401806014034070140010B01400E1401402C150140081601402A17014086
:40004000021B01400B4001400A410140014201400143014002450140024601400348014007490140044C0140034D014007500140025101400002010219402F848401560891
:40008000580459045B045D905F01D804D904DF010044012004440520070208500A210B020C100E01110115031710281029202C102D202E013040321033103712384439022D
:4000C0003C043D015B8063018380C0E7C2C7C458CAE6CCACCECBD608D808030105010901110121012501290133015401580459045B0C5F01830289048C0195049A039B0163
:40010000A501B002B201B304B503B908BF04D203D302D80CD904DB04DC90DF01004004040520070209200C100E010F101502184019042128272029042A082C102D202E010F
:4001400030083120370239103B013C043D013F105E8069506A1079407D408320864891019201930194049502962097029C109D209F02C0E1C2E2C410CAE2CC86CEE5D61082
:40018000DE18020406020A080B020C041002160118011C101E201F0120402280240828202A102C802E40310234FF37013E1056025739580459045B0C5F01D804D904DF0189
:4001C0000084012003800404052007020A660B100C100E010F10100A110412C015021B1020402281230229202A402B802D202F80310432403782384439123C443F10594078
:400200005A506108684A69146A806B507010714072067940841086019140921194049502962097129C109D209F02A108B408C0EFC2EFC41FCAADCC9ACE7FD604D802DE08E2
:40024000580459045F018104820285028B01950196019B089F04A302A604A710A908B11FB201B404B602B902BF01D804D904DF01004403400404056007820A080B120E104E
:4002800010041104138214101501180219241A301B8021032380284429602A122B102F8031063204335035243782386639013B123C449060910494049502962097029810D6
:4002C0009A029B529D249F80A310A780C0FDC227C43FCA8FCCFFCE5FEE10580459045F0184018E01920194019801A001A401B601D804D904DF01000401010404070208140C
:400300000A400C150D010E4012101302150116501F40281029012A402C102D012E40300531043505370238043A103B103C043F10874090049103981099049A109B02C0AC1C
:40034000C27EC43CCADBCCC3CE66E810EE08580459045F019E01B401D804D904DF01004401010444070208500A600B100C110D010E400F10121015011610180428102901F9
:400380002C102E402F803001310433803525370238043A103C04910392209404985099249A109B02A380C0ADC27FC434CAD3CCEBCE46E810EE0812041680301034103A041B
:4003C0003F428280C460CC30CEE0E0805F8083808410874097409C10A701D620E280E640A701A7012102C802B502EE082408A701C82063108710AF01B404D840E210EE1046
:400400001F803402C601CC01AF80B402E80800010101080109010A0110011A01000F102A0000000000028300000B0B0000000400007F7F0000000000000000000040C0004B
:400440000001000000020000000000000000000000000000000000000000000000000000000000000000000000000000000000000000000000000000000000000000000079
:40048000000000000000000000000000000000000000000000000000000000000000000000000000000000000000000000000000000000000000000000000000000000003C
:4004C00000000000000000000000000000000000000000000000000000000000000000000000000000000000000000000000000000000000000000000000000000000000FC
:4005000000000000000000000000000000000000000000000000000000000000000000000000000000000000000000000000000000000000000000000000000000000000BB
:40054000000000000000000000000000000000000000000000000000000000000000000000000000000000000000000000000000000000000000000000000000000000007B
:0200000490006A
:0400000000004005B7
:0200000490105A
:04000000BC90ACAF55
:0200000490303A
:02000000DB3BE8
:0200000490402A
:4000000000000000000000000000000000000000000000000000000000000000000000000000000000000000000000000000000000000000000000000000000000000000C0
:400040000000000000000000000000000000000000000000000000000000000000000000000000000000000000000000000000000000000000000000000000000000000080
:400080000000000000000000000000000000000000000000000000000000000000000000000000000000000000000000000000000000000000000000000000000000000040
:4000C0000000000000000000000000000000000000000000000000000000000000000000000000000000000000000000000000000000000000000000000000000000000000
:0200000490501A
:0C00000000012E16106900012E1EEBA45A
:00000001FF