:400000000080002011000000F1020000F102000080B500AF47F2BC63C4F2000344F2FA62C4F2000212681A6000F066F910B5054C237833B9044810B10448AFF3008001216D
:40004000217010BD2881FF1F00000000EC1D000008B5064B1BB106480649AFF300800648016811B1054A02B1904708BD00000000EC1D00002C81FF1F0881FF1F0000000027
:4000800090B583B000AF4FF00003FB8048F28113C1F6FF734FF000021A7062B64FF00C004FF0010141F6FF7241F6FF7300F020FE03461A4648F28213C1F6FF731A7001F07B
:4000C00001FA03461A4648F28013C1F6FF731A7048F28013C1F6FF731B7818464FF00C014FF0FE024FF0020301F028FA48F28013C1F6FF73197848F28413C1F6FF739AB246
:4001000048F24413C1F6FF739BB2084611461A4601F052FA48F28213C1F6FF731A7848F28013C1F6FF731B781046194601F056F901F0BAFA01F06CFB48F28213C1F6FF7379
:400140001B7818464FF0010101F06EF800F082FD01F012F800F09AFD4FF47A7001F06CFA00E000BF48F28113C1F6FF731B78DBB2012BF6D148F28113C1F6FF734FF00002A0
:400180001A7000F089FD4FF00003FB8013E0FC88FB88C3F105039BB2184600F083FD03461A4648F25C13C1F6FF7323F81420FB8803F10103FB80FB88052BE8D948F25012E1
:4001C000C1F6FF7248F25C13C1F6FF73144693E8070084E807004FF000004FF0000101F02DFB4FF00A0001F027FA41F6F050C0F2000001F05FFB4FF000004FF0000101F0DF
:400200001DFB48F25013C1F6FF739B88BB80BB88184601F04DFD4FF000004FF0060101F00DFB48F25013C1F6FF73DB88BB80BB88184601F03DFD4FF000004FF00B0101F07D
:40024000FDFA48F25013C1F6FF731B89BB80BB88184601F02DFD4FF001004FF0000101F0EDFA4FF00A0001F0E7F941F6F050C0F2000001F01FFB4FF001004FF0000101F00F
:40028000DDFA48F25C13C1F6FF739B88BB80BB88184601F00DFD4FF001004FF0060101F0CDFA48F25C13C1F6FF73DB88BB80BB88184601F0FDFC4FF001004FF00B0101F0E6
:4002C000BDFA48F25C13C1F6FF731B89BB80BB88184601F0EDFC48F28213C1F6FF731B7818464FF0010100F09FFF00F0CFFC38E780B400AFFEE700BF80B586B000AF40F2B6
:400300000103C0F200037B6141F65C63C0F200033B6140F20103C0F200037B6141F65C63C0F200033B613BE03B691B68FB603B695B68BB603B699B683B604FF000037B6055
:400340000FE0FB681A68BB681A60BB6803F10403BB60FB6803F10403FB607B6803F104037B607A683B689A42EBD13B69DB683B604FF000037B600BE0BB684FF000021A60DC
:40038000BB6803F10403BB607B6803F104037B607A683B689A42EFD13B6903F110033B617B69002B0CBF00230123DBB27A6902F1FF327A61002BB7D101F0E0FCFFF760FE7F
:4003C000FEE700BF80B582B000AF4EF60C53CEF200034FF48062C0F2FA521A604EF61453CEF200034EF61452CEF20002126842F400721A604FF000037B6019E07B68032BA3
:4004000007D840F20003C0F200037A6853F8223003E040F2F123C0F2000348F20002C1F6FF72796842F821307B6803F101037B607B682F2BE2D947F2BC63C4F200031B7874
:40044000DAB248F20413C1F6FF731A704EF60853CEF2000348F20002C1F6FF721A6000F0EFF900F0A9FE48F20013C1F6FF734FF000021A6007F10807BD4680BD80B582B05E
:4004800000AF7860396078684FF000013A6801F0A4FC07F10807BD4680BD00BF80B584B000AFF860B9607A60F868B9687A6801F08BFC07F11007BD4680BD00BF80B483B010
:4004C00000AF0346FB71FEE780B487B000AF786039604FF000033B614FF000037B612CE07B694FEA83037A68D3181B68BB60BB68FB73BB6823F0FF03BB6017E03B694FEA5A
:4005000043033A68D3181B781A46BB68D3183A694FEA420239688A1852781A703B6903F101033B61FB7B03F1FF33FB73FB7B002BE4D17B6903F101037B617B691F2BCFD90A
:4005400007F11C07BD4680BC704700BF80B582B000AF44F29863C4F200031B78BB704FF48143C4F200034FF001021A8044F28203C4F200034FF018021A704FF48643C4F238
:4005800000034FF002021A704FF040234FF008021A7044F20A33C4F200034FF0F3021A7044F29863C4F200034FF003021A7044F20933C4F200034FF084021A7044F2083369
:4005C000C4F200034FF005021A7048F2A063C0F201037B6007E04FF4F07000F0D9FD7B6803F1FF337B607B68002B09D044F20833C4F200031B78DBB203F02003002BEAD044
:4006000044F29863C4F20003BA781A704FF48443C4F200034FF003021A7044F2A163C4F200034FF48472C4F600121278D2B21A7044F22223C4F200034FF008021A8044F2A6
:400640002023C4F2000341F251221A804FF00003FB704FF019037B6019E0FB784FEA4303DAB244F22523C4F200031B78DBB203F00103DBB21343DBB203F00303FB704FF47F
:40068000F07000F085FD7B6803F1FF337B607B68002B02D0FB78032BDFD17B68002B03D14FF00300FFF70AFF44F20403C4F200034FF480721A8044F20403C4F200034FF036
:4006C00007021A7044F20603C4F200034FF000021A7044F20803C4F200034FF048021A7044F20403C4F200034FF000021A7044F20103C4F200034FF002021A7044F2A2330B
:40070000C4F2000344F2A232C4F200021278D2B242F00102D2B21A7007F10807BD4680BD80B483B000AF40F2CF13C4F600131B78FB7144F2F863C4F200031B78BB7144F271
:40074000F963C4F200031B787B7145F66E03C4F20003FA7902F00702D2B21A7045F66F03C4F20003FA794FEA1212D2B21A7044F2F863C4F20003BA7942F00302D2B21A70FE
:4007800044F2F963C4F200037A7942F00302D2B21A7045F24D13C4F200034FF040021A7045F25D13C4F200034FF001021A7045F26D13C4F200034FF027021A7045F6091376
:4007C000C4F200034FF040021A7045F60B13C4F200034FF040021A704FF4B643C4F200034FF047021A7045F62833C4F200034FF003021A7045F62B33C4F200034FF0200241
:400800001A7045F65833C4F200034FF002021A7044F2F963C4F200037A791A7044F2F863C4F20003BA791A7045F67603C4F200034FF044021A7007F10C07BD4680BC704796
:4008400080B582B000AF72B644F2E863C4F2000344F2E862C4F200021278D2B242F00402D2B21A704FF00003FB7119E0FA7913464FEA43039B184FEA430341F60062C0F205
:4008800000029B183B603B681A683B689B889BB210461946FFF7F2FDFB7903F10103FB71FB79082BE2D94FF090404FF08001C4F60001FFF709FE4FF4EC40C4F200004FF0F1
:4008C0000401FFF7DBFD47F20860C4F200004FF49061C4F600014FF00402FFF7DFFD47F21060C4F2000040F28441C4F600014FF00402FFF7D3FD45F20303C4F2010345F27E
:400900000302C4F201021278D2B242F00202D2B21A7045F21303C4F2010345F21302C4F201021278D2B242F00202D2B21A7044F2A033C4F2000344F2A032C4F2000212783D
:40094000D2B242F04002D2B21A7044F2C233C4F2000344F2C232C4F200021278D2B242F01002D2B21A7045F20210C4F200004FF48B61C4F600014FF00802FFF78FFD45F260
:400980002210C4F200004FF48C61C4F600014FF00802FFF783FD45F24210C4F200004FF48D61C4F600014FF00802FFF777FD45F25210C4F200004FF48E61C4F600014FF04C
:4009C0000802FFF76BFD45F26210C4F200004FF48F61C4F600014FF00802FFF75FFD44F22233C4F2000344F22232C4F200021278D2B242F00802D2B21A704FF49043C4F2FD
:400A000000034FF001021A70FFF7A0FD4FF49043C4F200034FF081021A704FF00403C4F208034FF001021A70FFF77AFE44F2B030C4F2000044F2A031C4F200014FF00E021F
:400A4000FFF72CFD07F10807BD4680BD80B500AF00F038FD03461A4648F27A13C1F6FF731A7048F27A13C1F6FF731A7848F27A13C1F6FF731B7810464FF00C011A464FF09E
:400A8000060300F05BFD48F27A13C1F6FF731A7848F26813C1F6FF739BB2104645F6A2311A4600F089FD48F27813C1F6FF731A7848F27A13C1F6FF731B781046194600F056
:400AC0008DFC80BD80B500AF00F0FCFC03461A4648F27B13C1F6FF731A7048F27B13C1F6FF731A7848F27B13C1F6FF731B7810464FF00C011A464FF0070300F01FFD48F2A8
:400B00007B13C1F6FF73197848F26813C1F6FF739AB248F28413C1F6FF739BB2084611461A4600F049FD48F27913C1F6FF731A7848F27B13C1F6FF731B781046194600F017
:400B40004DFC80BD80B500AF4FF002004FF001014FF4804241F6FF7300F062FA03461A4648F27813C1F6FF731A704FF00C004FF0010141F6FF7241F6FF7300F093FA0346CB
:400B80001A4648F27913C1F6FF731A7040F6E540C0F2000000F0C8FA4FF0000000F0D8FA80BD00BF80B582B000AFFFF78BFFFFF74DFF48F27813C1F6FF731B7818464FF0AA
:400BC000010100F031FB48F27913C1F6FF731B7818464FF0010100F027FB00F0E3FA0346FB7146F29A43C4F2000346F29A42C4F200021278D2B242F02002D2B21A70FB79A4
:400C0000184600F0D3FA46F27943C4F2000346F27942C4F200021278D2B242F00102D2B21A7046F27943C4F2000346F27942C4F200021278D2B242F00202D2B21A704EF206
:400C40008023CEF200034FF001021A6007F10807BD4680BD80B500AF48F27413C1F6FF731B68002B08D1FFF76DFF48F27413C1F6FF734FF001021A60FFF794FF00F07AF8C3
:400C800046F26943C4F200031B7880BD80B500AF00F054F980BD00BF80B500AF00F062F980BD00BF80B483B000AF0346FB80FB88C3F1050248F28413C1F6FF7333F8123000
:400CC0009AB248F29813C1F6FF731B889BB29BB2D31A9BB29BB21BB2184607F10C07BD4680BC704780B400AFBD4680BC704700BF80B584B002AFF871B971BA807B8048F2F6
:400D00000C13C1F6FF734FF000021A7048F20C13C1F6FF731978FA79BB794FF0000000904FF000000190084611461A464FF0000300F076FB48F20C13C1F6FF731978BA884A
:400D40007B88084611461A4600F004FB48F20C13C1F6FF731B7818464FF0020100F0C2FA48F20C13C1F6FF731B78184607F10807BD4680BD80B500AF48F27C13C1F6FF738B
:400D80001B78002B08D100F00BF848F27C13C1F6FF734FF001021A7000F01EF880BD00BF80B500AF45F60913C4F2000345F60912C4F200021278D2B242F00602D2B21A7091
:400DC0004FF00C0000F08AF848F29213C1F6FF734FF000021A8080BD80B582B000AF00F0E1F90346FB7144F2AB33C4F2000344F2AB32C4F200021278D2B242F00202D2B221
:400E00001A7044F2BB33C4F2000344F2BB32C4F200021278D2B242F00202D2B21A7045F60B13C4F200031B78BB71BB7943F00203BB71BB7943F00103BB7145F60B13C4F20F
:400E40000003BA791A7045F60E13C4F200034FF004021A7045F60D13C4F2000345F60D12C4F200021278D2B222F04002D2B21A7045F60D13C4F2000345F60D12C4F2000212
:400E80001278D2B242F02002D2B21A7045F60813C4F200034FF008021A7044F21663C4F200034FF002021A7045F62F33C4F2000345F62F32C4F200021278D2B242F00802B7
:400EC000D2B21A704FF00A0000F0DAFBFB79184600F06CF907F10807BD4680BD80B584B000AF0346FB71FB790A2B08D00C2B02D0082B08D00BE04FF0C403FB730FE04FF079
:400F00008403FB730BE04FF04403FB7307E04FF0C403FB734FF0000000F082FB00BF45F60A13C4F20003FA7B1A70FB79184600F02DF807F11007BD4680BD00BF80B400AF2F
:400F400045F60813C4F2000345F60812C4F200021278D2B242F00102D2B21A70BD4680BC704700BF80B400AF45F60813C4F2000345F60812C4F200021278D2B222F001022D
:400F8000D2B21A70BD4680BC704700BF80B584B000AF0346FB71FB790A2B08D00C2B02D0082B08D00BE04FF48053FB600FE04FF48063FB600BE04FF48073FB6007E04FF09E
:400FC0000003FB604FF0000000F02AFB00BF48F29013C1F6FF734FF000021A80FB6842F2107202FB03F303F6C41248F6AD33C6F6DB0383FB02134FEAE3214FEAE273CA1ACA
:4010000048F29413C1F6FF731A6048F29813C1F6FF734FF000021A8007F11007BD4680BD80B584B002AFF871B971BA807B8048F20D13C1F6FF734FF002021A7048F20D1368
:40104000C1F6FF731978FA79BB794FF0000000904FF000000190084611461A464FF0020300F0DEF948F20D13C1F6FF731978BA887B88084611461A4600F06CF948F20D1353
:40108000C1F6FF731B7818464FF0020100F02AF948F20D13C1F6FF731B78184607F10807BD4680BD80B584B002AFF871B971BA807B8048F20E13C1F6FF734FF001021A70D4
:4010C00048F20E13C1F6FF731978FA79BB794FF0000000904FF000000190084611461A464FF0010300F09CF948F20E13C1F6FF731978BA887B88084611461A4600F02AF956
:4011000048F20E13C1F6FF731B7818464FF0020100F0E8F848F20E13C1F6FF731B78184607F10807BD4680BD80B485B000AF78604EF60853CEF200031B68FB60FB6803F1E5
:4011400040037A681A6007F11407BD4680BC704780B483B000AF0346FB714FF46443CEF20003FA794FEA4212D2B21A7007F10C07BD4680BC704700BF80B400AF4EF28013CB
:40118000CEF200034FF001021A60BD4680BC70470230800800F0058000BF013800467FF4FCAF7047EFF3108072B6704780F31088704700BFAFF3008080B483B000AF48F234
:4011C0001113C1F6FF734FF07F021A7048F21013C1F6FF734FF080021A704FF07F03FB710FE0FB794FEAC30303F1804303F5F043FA7902F1FF32D2B21A70FB7903F1FF33D7
:40120000FB71FB79002BECD1FB794FEAC30303F1804303F5F0434FF000021A7007F10C07BD4680BC704700BF80B485B000AF02460B46FA71BB714FF00103FB60FB79172B6A
:4012400048D8BB79002B16D0FB794FEA031247F21003C4F20003D318FA794FEA021147F21002C4F200028A181278D2B242F02002D2B21A7015E0FB794FEA031247F2100380
:40128000C4F20003D318FA794FEA021147F21002C4F200028A181278D2B222F02002D2B21A70FB794FEA031247F21003C4F20003D318FA794FEA021147F21002C4F2000262
:4012C0008A181278D2B242F00102D2B21A704FF00003FB60FB68184607F11407BD4680BC704700BF80B485B000AF02460B46FA71BB714FF00103FB60FB79172B22D8FB79CB
:401300004FEA031247F21003C4F20003D3181B78DBB223F00E03FB72FB794FEA031247F21003C4F20003D318BA7902F00702D2B24FEA4202D1B2FA7A0A43D2B21A704FF04C
:401340000003FB60FB68184607F11407BD4680BC704700BF80B485B000AF13460246FA710A46BA807B804FF00103FB60BA8841F6FF739A4202D14FF40053BB807A8841F69B
:40138000FF739A4202D14FF400537B80FB79172B1CD8FB794FEAC30303F1804303F5EC4303F10403BB60BB68BA881A80FB794FEAC30303F1804303F5EC4303F10603BB6002
:4013C000BB687A881A804FF00003FB60FB68184607F11407BD4680BC704700BF80B485B000AF02460B46FA71BB714FF00103FB60FB79172B0CD8FB794FEA031247F210037A
:40140000C4F20003D318BA795A724FF00003FB60FB68184607F11407BD4680BC704700BF80B485B000AFF871B9717A713B714FF00103FB60FB79172B3CD8FB794FEAC303C6
:4014400003F1804303F5EC43BA7902F07F02D1B27A794FEAC212D2B20A43D2B21A70FB794FEAC30303F1804303F5EC433A7E4FEA0212D1B23A7902F00F02D2B20A43D2B2A2
:401480005A70FB794FEAC30303F1804303F5EC433A7F02F00F02D2B29A70FB794FEAC30303F1804303F5EC434FF00002DA704FF00003FB60FB68184607F11407BD4680BC3B
:4014C000704700BF80B582B000AF4FF0FF03FB71FFF768FE0346BB7148F21013C1F6FF731B78182B20D948F21113C1F6FF731B78FB7148F21013C1F6FF731B7803F1FF33C8
:40150000DAB248F21013C1F6FF731A70FB794FEAC30303F1804303F5F0431B78DAB248F21113C1F6FF731A70BB791846FFF73EFEFB79184607F10807BD4680BD80B485B044
:4015400000AFF871B980BA71FB704FF00103FB60FB795BB2002B27DBBB8823F47F6323F00F039BB2002B1FD1FB794FEAC30303F1804303F5F043BB60BB68BA881A80FB798C
:401580004FEAC30303F1804303F5F043BA799A70FB794FEAC30303F1804303F5F043FA78DA704FF00003FB60FB68184607F11407BD4680BC704700BF80B485B000AF134665
:4015C0000246FA710A46BA807B804FF00103FB60FB795BB2002B1CDBFB794FEAC30303F1804303F5F04303F10403BB60BB68BA881A80FB794FEAC30303F1804303F5F043B3
:4016000003F10603BB60BB687A881A804FF00003FB60FB68184607F11407BD4680BC704780B483B000AF0346FB7101BE07F10C07BD4680BC704700BF80B582B000AF786034
:401640000BE048F22413C1F6FF731B681846FFF79FFD7B68A3F500437B607B68B3F5004FEFD848F21C13C1F6FF731B687A6802FB03F31846FFF78CFD07F10807BD4680BD2A
:4016800080B582B000AF0346FB80FA8848F22013C1F6FF731B7803FB02F31846FFF778FD07F10807BD4680BD80B500AF00F04EF841F2CD60C0F2000000F014F84FF0070034
:4016C00000F024F800F036F880BD00BF80B400AF48F28113C1F6FF734FF001021A70BD4680BC704780B485B000AF78604EF60853CEF200031B68FB60FB6803F144037A6878
:401700001A6007F11407BD4680BC704780B483B000AF0346FB714EF20143CEF20003FA794FEA4212D2B21A7007F10C07BD4680BC704700BF80B400AF4FF46143CEF20003B9
:401740004FF002021A60BD4680BC704780B400AF4EF28013CEF200034FF002021A60BD4680BC704780B500AF4FF02800FFF764FF4FF0030000F054FA4FF00500FFF75CFFD1
:401780004FF0030000F04CFA4FF00F00FFF754FF4FF0030000F044FA4FF00100FFF74CFF4FF0020000F03CFA4FF00500FFF744FF4FF0060000F0BAF84FF00E0000F0B6F873
:4017C0004FF02C0000F0B2F84FF0080000F0AEF84FF0010000F0AAF84FF00C0000F0A6F84FF0030000F0A2F84FF00500FFF724FF80BD00BF80B500AF4FF00C0000F096F88A
:4018000048F27D13C1F6FF734FF001021A7080BD80B500AF48F27E13C1F6FF731B78002B08D1FFF79FFF48F27E13C1F6FF734FF001021A70FFF7DEFF80BD00BF80B582B0B3
:4018400000AF02460B46FA71BB71FB79032B2BD801A252F823F000BF69180000791800008918000099180000BB79A3F18003DBB2184600F05BF818E0BB79A3F14003DBB2B8
:40188000184600F053F810E0BB79A3F16C03DBB2184600F04BF808E0BB79A3F12C03DBB2184600F043F800E000BF07F10807BD4680BD00BF80B584B000AF78604FF001037D
:4018C000FB737B681B78BB730CE0BB7B184600F011F8FB7B7A68D3181B78BB73FB7B03F10103FB73BB7B002BEFD107F11007BD4680BD00BF80B584B000AF0346FB7100F091
:4019000031F8FB794FEA1313FB73FB7B184600F02DF9FB7903F00F03FB73FB7B184600F025F907F11007BD4680BD00BF80B584B000AF0346FB7100F015F8FB794FEA1313DF
:40194000FB73FB7B184600F06BF9FB7903F00F03FB73FB7B184600F063F907F11007BD4680BD00BF80B582B000AF45F22013C4F2000345F22012C4F200021278D2B222F042
:401980007F02D2B21A7045F22213C4F200031B78DBB223F00F03FB7145F22213C4F20003FA7942F00F02D2B21A7045F22313C4F200031B78DBB223F00F03FB7145F2231395
:4019C000C4F20003FA791A7045F22413C4F200031B78DBB223F00F03FB7145F22413C4F20003FA791A7045F22013C4F2000345F22012C4F200021278D2B222F02002D2B22B
:401A00001A7045F22013C4F2000345F22012C4F200021278D2B242F04002D2B21A704FF00000FFF72DFE45F22013C4F2000345F22012C4F200021278D2B242F01002D2B2CE
:401A40001A704FF00100FFF71BFE45F22113C4F200031B78FB7145F22013C4F2000345F22012C4F200021278D2B222F01002D2B21A704FF00000FFF703FEFB7903F008033E
:401A8000FB7145F22013C4F2000345F22012C4F200021278D2B242F01002D2B21A704FF00100FFF7EDFD45F22013C4F2000345F22012C4F200021278D2B222F01002D2B2FC
:401AC0001A70FB79002BAAD145F22013C4F2000345F22012C4F200021278D2B222F04002D2B21A7045F22013C4F2000345F22012C4F200021278D2B222F07F02D2B21A709B
:401B000045F22213C4F2000345F22212C4F200021278D2B222F00F02D2B21A7045F22313C4F200031B78DBB223F00F03FB7145F22313C4F20003FA7942F00F02D2B21A705D
:401B400045F22413C4F200031B78DBB223F00F03FB7145F22413C4F20003FA7942F00F02D2B21A7007F10807BD4680BD80B582B000AF0346FB7145F22013C4F2000345F236
:401B80002012C4F200021278D2B242F02002D2B21A7045F22013C4F2000345F22012C4F200021278D2B222F04002D2B21A704FF00000FFF765FD45F22013C4F2000345F226
:401BC0002012C4F200021278D2B222F00F02D2B21A7045F22013C4F2000345F22012C4F200021278D1B2FA790A43D2B242F01002D2B21A704FF00100FFF742FD45F22013F6
:401C0000C4F2000345F22012C4F200021278D2B222F01002D2B21A7007F10807BD4680BD80B582B000AF0346FB7145F22013C4F2000345F22012C4F200021278D2B222F014
:401C40006002D2B21A7045F22013C4F2000345F22012C4F200021278D2B222F00F02D2B21A7045F22013C4F2000345F22012C4F200021278D1B2FA790A43D2B242F0100298
:401C8000D2B21A704FF00100FFF7FAFC45F22013C4F2000345F22012C4F200021278D2B222F01002D2B21A7007F10807BD4680BD80B586B000AF78604FF00A03FB75FB7DF9
:401CC00007F11801CB184FF0000203F8102CFB7D03F1FF33FB7528E079684CF6CD43CCF6CC43A3FB01234FEAD30213464FEA83039B184FEA4303CA1AD3B203F13003BB7584
:401D0000FB7D07F11801CB18BA7D03F8102C7A684CF6CD43CCF6CC43A3FB02134FEAD3037B60FB7D03F1FF33FB757B68092BD3D879684CF6CD43CCF6CC43A3FB01234FEA58
:401D4000D30213464FEA83039B184FEA4303CA1AD3B203F13003BB75FB7D07F11801CB18BA7D03F8102CFB7D07F10802D3181846FFF7A0FD07F11807BD4680BD38B50E4DB5
:401D80000E4B0024E81A8510AC4205D00B4951F8242090470134F7E700F04EF80849094A541AA5100024AC4205D0054B53F8240080470134F7E738BD441E0000441E00004B
:401DC000441E00004C1E000010B50023934203D0CC5CC4540133F9E710BD82180346934202D003F8011BFAE77047000000000000202020202020202020202020202020004D
:401E0000105100401000305100401000C05100401000F0510040100000000140001000140140000800400140000A004C014000020050014020000000F8B500BFF8BC08BCD1
:401E40009E46704751000000C5030000F8B500BFF8BC08BC9E4670472D000000701E00000881FF1F20000000780000000000000000000000FFFFFF00807F00000700000032
:401E800000366E01C05D0000180000000000E02E0000000000000000000000000000000000000000000000000000000000000000000000000000000000000000000000003A
:401EC00000000000000000000000000000000000000000000000000000000000000000000000000000000000000000000000000000000000000000000000000000000000E2
:401F000000000000000000000000000000000000000000000000000000000000000000000000000000000000000000000000000000000000000000000000000000000000A1
:401F40000000000000000000000000000000000000000000000000000000000000000000000000000000000000000000000000000000000000000000000000000000000061
:401F80000000000000000000000000000000000000000000000000000000000000000000000000000000000000000000000000000000000000000000000000000000000021
:020000040003F7
:0200000480007A
:4000000004520040015B004001640040010301401A0801402C090140300A0140360B0140160C01402B0D01400E0E0140230F01400215014002170140121801402C1901407F
:400040000E1A01402C1B01400B400140074101400242014002430140064401400A45014002460140044701400748014003490140054C0140074D01400750014002510140CF
:4000800020402801302531062F848A05EC02580459045F01800187028A018E04960897049D019E04A602A701B00CB104B203B703BE01D203D302D401D804D904DB04DC0957
:4000C000DF010012014006200A210E681104144017841810190920022241238029082C402E40300832403610378439043C083E203F105A8069406A208A019104924093100A
:40010000960298409B049D01A00CA214C02BC275C4B4CA92CC7ACE62D608010202010608080809040C040F02120216041708180119081C101D011E202002230424402680B2
:40014000272128202A102C802E402F10331F36FF372039083E403F045602572C580459045B045F018E029E04AA01AF01B004B202B401B501D804D904DF0100AA020106017C
:4001800009480A460C80108A1308172019801C181D181E681F0120022104224823102408270C29802A292C0230403110324538983B023E203F106101685A6A086B2070C0DE
:4001C000720C91049410950896C297129C409D109F08A405A540A61CC08FC28FC44FCA1FCC0FCE0FD8010101050109010D0117012B012D013701580459045F01810189010E
:4002000091019701A101A501A901B301D804D904DF010018051008400A400C500E6010101180120813081401150822042701285029102F09300132093308370838103B0212
:400240003C1A3D8086048B0191049410968097129F08A540A60CAD04B040C046C2F9C4A7CA37CC43CEF5E408580459045F0182018A01900196019801A401AC01B001D804CC
:40028000D904DF0100100510078808100A800B520C100E180F50100411801201138016221C8028102A012C102E102F01311032083404378838103A223B423C103F40C05291
:4002C000C27FC4A3CA73CC56CE3DEC20EE08E210EE01050207010B031502170119031D011F0221032D0335023701580459045F01D804D904DF0100080310071008120A4057
:400300000B100E601040110413801440152417842510268028422C402E40301032013304341036103784380439203B103C0C3F108C109242931098409B84A004A210AA4045
:40034000C024C23EC4FDCA99CC77CE66E21007010B0111011501190121012D013301580459045F01D804D904DF0100080304040408020A400B100E6010501380144115101F
:400380001784201028422C402E403011330434103610378438043B103C0C3D103F10828092409310941098409B84A004A290B510C026C23CC4FDCA99CC77CE66E404EC20E6
:4003C000EE0812041504324034803A043F225E02C460CC30CEE0D680A601A711AD04B480B640B710EC40A601A711A601A71154205B805E206401D403D605231086108B80EC
:400400009F80A420A610B001C802E404EC049310A4208B109310A420E60127018E01A601A701AB10C820EE80AF01B301EE101F803401A420C601CC0157808380AF80B00121
:40044000B420D402EC0C000101010C010D010E0110011C01000F102A0000000000000400007F7F000000000000000000004040000000000000010100000000000027270064
:400480000001000000020000000000000000000000000000000000000000000000000000000000000000000000000000000000000000000000000000000000000000000039
:4004C00000000000000000000000000000000000000000000000000000000000000000000000000000000000000000000000000000000000000000000000000000000000FC
:4005000000000000000000000000000000000000000000000000000000000000000000000000000000000000000000000000000000000000000000000000000000000000BB
:40054000000000000000000000000000000000000000000000000000000000000000000000000000000000000000000000000000000000000000000000000000000000007B
:40058000000000000000000000000000000000000000000000000000000000000000000000000000000000000000000000000000000000000000000000000000000000003B
:0200000490006A
:0400000000004005B7
:0200000490105A
:04000000BC90ACAF55
:0200000490303A
:02000000E1E835
:0200000490402A
:4000000000000000000000000000000000000000000000000000000000000000000000000000000000000000000000000000000000000000000000000000000000000000C0
:400040000000000000000000000000000000000000000000000000000000000000000000000000000000000000000000000000000000000000000000000000000000000080
:400080000000000000000000000000000000000000000000000000000000000000000000000000000000000000000000000000000000000000000000000000000000000040
:4000C0000000000000000000000000000000000000000000000000000000000000000000000000000000000000000000000000000000000000000000000000000000000000
:0200000490501A
:0C00000000012E12306900012E21125167
:00000001FF